{
  "_format": "hh-sol-artifact-1",
  "contractName": "World",
  "sourceName": "contracts/World.sol",
  "abi": [
    {
      "inputs": [
        {
          "internalType": "contract IERC20",
          "name": "_asset",
          "type": "address"
        },
        {
          "internalType": "address",
          "name": "_rakeRecipient",
          "type": "address"
        },
        {
          "internalType": "address",
          "name": "_worldRecipient",
          "type": "address"
        }
      ],
      "stateMutability": "nonpayable",
      "type": "constructor"
    },
    {
      "inputs": [],
      "name": "ECDSAInvalidSignature",
      "type": "error"
    },
    {
      "inputs": [
        {
          "internalType": "uint256",
          "name": "length",
          "type": "uint256"
        }
      ],
      "name": "ECDSAInvalidSignatureLength",
      "type": "error"
    },
    {
      "inputs": [
        {
          "internalType": "bytes32",
          "name": "s",
          "type": "bytes32"
        }
      ],
      "name": "ECDSAInvalidSignatureS",
      "type": "error"
    },
    {
      "inputs": [
        {
          "internalType": "address",
          "name": "owner",
          "type": "address"
        }
      ],
      "name": "OwnableInvalidOwner",
      "type": "error"
    },
    {
      "inputs": [
        {
          "internalType": "address",
          "name": "account",
          "type": "address"
        }
      ],
      "name": "OwnableUnauthorizedAccount",
      "type": "error"
    },
    {
      "inputs": [],
      "name": "ReentrancyGuardReentrantCall",
      "type": "error"
    },
    {
      "anonymous": false,
      "inputs": [
        {
          "indexed": true,
          "internalType": "bytes32",
          "name": "serverId",
          "type": "bytes32"
        },
        {
          "indexed": true,
          "internalType": "address",
          "name": "controller",
          "type": "address"
        },
        {
          "indexed": false,
          "internalType": "uint96",
          "name": "buyInAmount",
          "type": "uint96"
        },
        {
          "indexed": false,
          "internalType": "uint32",
          "name": "massPerDollar",
          "type": "uint32"
        },
        {
          "indexed": false,
          "internalType": "uint16",
          "name": "rakeShareBps",
          "type": "uint16"
        },
        {
          "indexed": false,
          "internalType": "uint16",
          "name": "worldShareBps",
          "type": "uint16"
        },
        {
          "indexed": false,
          "internalType": "uint32",
          "name": "exitHoldMs",
          "type": "uint32"
        }
      ],
      "name": "AddedServer",
      "type": "event"
    },
    {
      "anonymous": false,
      "inputs": [
        {
          "indexed": true,
          "internalType": "address",
          "name": "player",
          "type": "address"
        },
        {
          "indexed": true,
          "internalType": "bytes32",
          "name": "serverId",
          "type": "bytes32"
        },
        {
          "indexed": true,
          "internalType": "bytes32",
          "name": "depositId",
          "type": "bytes32"
        },
        {
          "indexed": false,
          "internalType": "uint256",
          "name": "amount",
          "type": "uint256"
        },
        {
          "indexed": false,
          "internalType": "uint256",
          "name": "spawnAmount",
          "type": "uint256"
        },
        {
          "indexed": false,
          "internalType": "uint256",
          "name": "worldAmount",
          "type": "uint256"
        },
        {
          "indexed": false,
          "internalType": "uint256",
          "name": "rakeAmount",
          "type": "uint256"
        }
      ],
      "name": "Deposit",
      "type": "event"
    },
    {
      "anonymous": false,
      "inputs": [
        {
          "indexed": true,
          "internalType": "address",
          "name": "player",
          "type": "address"
        },
        {
          "indexed": true,
          "internalType": "bytes32",
          "name": "serverId",
          "type": "bytes32"
        },
        {
          "indexed": true,
          "internalType": "bytes32",
          "name": "sessionId",
          "type": "bytes32"
        },
        {
          "indexed": false,
          "internalType": "uint256",
          "name": "payout",
          "type": "uint256"
        }
      ],
      "name": "Exit",
      "type": "event"
    },
    {
      "anonymous": false,
      "inputs": [
        {
          "indexed": true,
          "internalType": "address",
          "name": "previousOwner",
          "type": "address"
        },
        {
          "indexed": true,
          "internalType": "address",
          "name": "newOwner",
          "type": "address"
        }
      ],
      "name": "OwnershipTransferred",
      "type": "event"
    },
    {
      "anonymous": false,
      "inputs": [
        {
          "indexed": true,
          "internalType": "address",
          "name": "recipient",
          "type": "address"
        }
      ],
      "name": "RakeRecipientUpdated",
      "type": "event"
    },
    {
      "anonymous": false,
      "inputs": [
        {
          "indexed": true,
          "internalType": "bytes32",
          "name": "serverId",
          "type": "bytes32"
        }
      ],
      "name": "RemovedServer",
      "type": "event"
    },
    {
      "anonymous": false,
      "inputs": [
        {
          "indexed": true,
          "internalType": "bytes32",
          "name": "serverId",
          "type": "bytes32"
        },
        {
          "indexed": true,
          "internalType": "address",
          "name": "controller",
          "type": "address"
        },
        {
          "indexed": false,
          "internalType": "uint96",
          "name": "buyInAmount",
          "type": "uint96"
        },
        {
          "indexed": false,
          "internalType": "uint32",
          "name": "massPerDollar",
          "type": "uint32"
        },
        {
          "indexed": false,
          "internalType": "uint16",
          "name": "rakeShareBps",
          "type": "uint16"
        },
        {
          "indexed": false,
          "internalType": "uint16",
          "name": "worldShareBps",
          "type": "uint16"
        },
        {
          "indexed": false,
          "internalType": "uint32",
          "name": "exitHoldMs",
          "type": "uint32"
        }
      ],
      "name": "UpdatedServer",
      "type": "event"
    },
    {
      "anonymous": false,
      "inputs": [
        {
          "indexed": true,
          "internalType": "address",
          "name": "recipient",
          "type": "address"
        }
      ],
      "name": "WorldRecipientUpdated",
      "type": "event"
    },
    {
      "inputs": [
        {
          "internalType": "bytes32",
          "name": "serverId",
          "type": "bytes32"
        },
        {
          "components": [
            {
              "internalType": "address",
              "name": "controller",
              "type": "address"
            },
            {
              "internalType": "uint96",
              "name": "buyInAmount",
              "type": "uint96"
            },
            {
              "internalType": "uint32",
              "name": "massPerDollar",
              "type": "uint32"
            },
            {
              "internalType": "uint16",
              "name": "rakeShareBps",
              "type": "uint16"
            },
            {
              "internalType": "uint16",
              "name": "worldShareBps",
              "type": "uint16"
            },
            {
              "internalType": "uint32",
              "name": "exitHoldMs",
              "type": "uint32"
            }
          ],
          "internalType": "struct World.ServerConfig",
          "name": "config",
          "type": "tuple"
        }
      ],
      "name": "addServer",
      "outputs": [],
      "stateMutability": "nonpayable",
      "type": "function"
    },
    {
      "inputs": [],
      "name": "asset",
      "outputs": [
        {
          "internalType": "contract IERC20",
          "name": "",
          "type": "address"
        }
      ],
      "stateMutability": "view",
      "type": "function"
    },
    {
      "inputs": [
        {
          "internalType": "bytes32",
          "name": "serverId",
          "type": "bytes32"
        },
        {
          "internalType": "uint256",
          "name": "amount",
          "type": "uint256"
        }
      ],
      "name": "deposit",
      "outputs": [],
      "stateMutability": "nonpayable",
      "type": "function"
    },
    {
      "inputs": [],
      "name": "depositNonce",
      "outputs": [
        {
          "internalType": "uint256",
          "name": "",
          "type": "uint256"
        }
      ],
      "stateMutability": "view",
      "type": "function"
    },
    {
      "inputs": [
        {
          "internalType": "bytes32",
          "name": "serverId",
          "type": "bytes32"
        },
        {
          "internalType": "bytes32",
          "name": "sessionId",
          "type": "bytes32"
        },
        {
          "internalType": "uint256",
          "name": "payout",
          "type": "uint256"
        },
        {
          "internalType": "uint256",
          "name": "deadline",
          "type": "uint256"
        },
        {
          "internalType": "bytes",
          "name": "signature",
          "type": "bytes"
        }
      ],
      "name": "exitWithSignature",
      "outputs": [],
      "stateMutability": "nonpayable",
      "type": "function"
    },
    {
      "inputs": [
        {
          "internalType": "bytes32",
          "name": "",
          "type": "bytes32"
        },
        {
          "internalType": "bytes32",
          "name": "",
          "type": "bytes32"
        }
      ],
      "name": "exitedSessions",
      "outputs": [
        {
          "internalType": "bool",
          "name": "",
          "type": "bool"
        }
      ],
      "stateMutability": "view",
      "type": "function"
    },
    {
      "inputs": [
        {
          "internalType": "bytes32",
          "name": "serverId",
          "type": "bytes32"
        }
      ],
      "name": "getServer",
      "outputs": [
        {
          "components": [
            {
              "internalType": "address",
              "name": "controller",
              "type": "address"
            },
            {
              "internalType": "uint96",
              "name": "buyInAmount",
              "type": "uint96"
            },
            {
              "internalType": "uint32",
              "name": "massPerDollar",
              "type": "uint32"
            },
            {
              "internalType": "uint16",
              "name": "rakeShareBps",
              "type": "uint16"
            },
            {
              "internalType": "uint16",
              "name": "worldShareBps",
              "type": "uint16"
            },
            {
              "internalType": "uint32",
              "name": "exitHoldMs",
              "type": "uint32"
            }
          ],
          "internalType": "struct World.ServerConfig",
          "name": "config",
          "type": "tuple"
        },
        {
          "internalType": "uint256",
          "name": "bankroll",
          "type": "uint256"
        }
      ],
      "stateMutability": "view",
      "type": "function"
    },
    {
      "inputs": [],
      "name": "owner",
      "outputs": [
        {
          "internalType": "address",
          "name": "",
          "type": "address"
        }
      ],
      "stateMutability": "view",
      "type": "function"
    },
    {
      "inputs": [],
      "name": "rakeRecipient",
      "outputs": [
        {
          "internalType": "address",
          "name": "",
          "type": "address"
        }
      ],
      "stateMutability": "view",
      "type": "function"
    },
    {
      "inputs": [
        {
          "internalType": "bytes32",
          "name": "serverId",
          "type": "bytes32"
        }
      ],
      "name": "removeServer",
      "outputs": [],
      "stateMutability": "nonpayable",
      "type": "function"
    },
    {
      "inputs": [],
      "name": "renounceOwnership",
      "outputs": [],
      "stateMutability": "nonpayable",
      "type": "function"
    },
    {
      "inputs": [
        {
          "internalType": "address",
          "name": "recipient",
          "type": "address"
        }
      ],
      "name": "setRakeRecipient",
      "outputs": [],
      "stateMutability": "nonpayable",
      "type": "function"
    },
    {
      "inputs": [
        {
          "internalType": "address",
          "name": "recipient",
          "type": "address"
        }
      ],
      "name": "setWorldRecipient",
      "outputs": [],
      "stateMutability": "nonpayable",
      "type": "function"
    },
    {
      "inputs": [
        {
          "internalType": "contract IERC20",
          "name": "token",
          "type": "address"
        },
        {
          "internalType": "address",
          "name": "to",
          "type": "address"
        },
        {
          "internalType": "uint256",
          "name": "amount",
          "type": "uint256"
        }
      ],
      "name": "sweep",
      "outputs": [],
      "stateMutability": "nonpayable",
      "type": "function"
    },
    {
      "inputs": [
        {
          "internalType": "address",
          "name": "newOwner",
          "type": "address"
        }
      ],
      "name": "transferOwnership",
      "outputs": [],
      "stateMutability": "nonpayable",
      "type": "function"
    },
    {
      "inputs": [
        {
          "internalType": "bytes32",
          "name": "serverId",
          "type": "bytes32"
        },
        {
          "components": [
            {
              "internalType": "address",
              "name": "controller",
              "type": "address"
            },
            {
              "internalType": "uint96",
              "name": "buyInAmount",
              "type": "uint96"
            },
            {
              "internalType": "uint32",
              "name": "massPerDollar",
              "type": "uint32"
            },
            {
              "internalType": "uint16",
              "name": "rakeShareBps",
              "type": "uint16"
            },
            {
              "internalType": "uint16",
              "name": "worldShareBps",
              "type": "uint16"
            },
            {
              "internalType": "uint32",
              "name": "exitHoldMs",
              "type": "uint32"
            }
          ],
          "internalType": "struct World.ServerConfig",
          "name": "config",
          "type": "tuple"
        }
      ],
      "name": "updateServer",
      "outputs": [],
      "stateMutability": "nonpayable",
      "type": "function"
    },
    {
      "inputs": [],
      "name": "worldRecipient",
      "outputs": [
        {
          "internalType": "address",
          "name": "",
          "type": "address"
        }
      ],
      "stateMutability": "view",
      "type": "function"
    }
  ],
  "bytecode": "0x60a06040523480156200001157600080fd5b506040516200444c3803806200444c8339818101604052810190620000379190620004fc565b33600073ffffffffffffffffffffffffffffffffffffffff168173ffffffffffffffffffffffffffffffffffffffff1603620000ad5760006040517f1e4fbdf7000000000000000000000000000000000000000000000000000000008152600401620000a4919062000569565b60405180910390fd5b620000be816200019760201b60201c565b5060018081905550600073ffffffffffffffffffffffffffffffffffffffff168373ffffffffffffffffffffffffffffffffffffffff160362000138576040517f08c379a00000000000000000000000000000000000000000000000000000000081526004016200012f90620005e7565b60405180910390fd5b8273ffffffffffffffffffffffffffffffffffffffff1660808173ffffffffffffffffffffffffffffffffffffffff16815250506200017d826200025b60201b60201c565b6200018e816200035460201b60201c565b505050620006ed565b60008060009054906101000a900473ffffffffffffffffffffffffffffffffffffffff169050816000806101000a81548173ffffffffffffffffffffffffffffffffffffffff021916908373ffffffffffffffffffffffffffffffffffffffff1602179055508173ffffffffffffffffffffffffffffffffffffffff168173ffffffffffffffffffffffffffffffffffffffff167f8be0079c531659141344cd1fd0a4f28419497f9722a3daafe3b4186f6b6457e060405160405180910390a35050565b600073ffffffffffffffffffffffffffffffffffffffff168173ffffffffffffffffffffffffffffffffffffffff1603620002cd576040517f08c379a0000000000000000000000000000000000000000000000000000000008152600401620002c49062000659565b60405180910390fd5b80600260006101000a81548173ffffffffffffffffffffffffffffffffffffffff021916908373ffffffffffffffffffffffffffffffffffffffff1602179055508073ffffffffffffffffffffffffffffffffffffffff167f9292deb83ec2985897c3105a9b31094551a549df207ca4419e038cf3e7516c6260405160405180910390a250565b600073ffffffffffffffffffffffffffffffffffffffff168173ffffffffffffffffffffffffffffffffffffffff1603620003c6576040517f08c379a0000000000000000000000000000000000000000000000000000000008152600401620003bd90620006cb565b60405180910390fd5b80600360006101000a81548173ffffffffffffffffffffffffffffffffffffffff021916908373ffffffffffffffffffffffffffffffffffffffff1602179055508073ffffffffffffffffffffffffffffffffffffffff167fa077d464cb56f9c802de7883d4446526694da7f5de56c86c78dbe40074e8c76360405160405180910390a250565b600080fd5b600073ffffffffffffffffffffffffffffffffffffffff82169050919050565b60006200047f8262000452565b9050919050565b6000620004938262000472565b9050919050565b620004a58162000486565b8114620004b157600080fd5b50565b600081519050620004c5816200049a565b92915050565b620004d68162000472565b8114620004e257600080fd5b50565b600081519050620004f681620004cb565b92915050565b6000806000606084860312156200051857620005176200044d565b5b60006200052886828701620004b4565b93505060206200053b86828701620004e5565b92505060406200054e86828701620004e5565b9150509250925092565b620005638162000472565b82525050565b600060208201905062000580600083018462000558565b92915050565b600082825260208201905092915050565b7f61737365743d3000000000000000000000000000000000000000000000000000600082015250565b6000620005cf60078362000586565b9150620005dc8262000597565b602082019050919050565b600060208201905081810360008301526200060281620005c0565b9050919050565b7f72616b6520726563697069656e743d3000000000000000000000000000000000600082015250565b60006200064160108362000586565b91506200064e8262000609565b602082019050919050565b60006020820190508181036000830152620006748162000632565b9050919050565b7f776f726c6420726563697069656e743d30000000000000000000000000000000600082015250565b6000620006b360118362000586565b9150620006c0826200067b565b602082019050919050565b60006020820190508181036000830152620006e681620006a4565b9050919050565b608051613d2762000725600039600081816103ee0152818161063b015281816107d501528181610ccd01526112e70152613d276000f3fe608060405234801561001057600080fd5b506004361061010b5760003560e01c8063950ce782116100a2578063c37a30df11610071578063c37a30df14610269578063c65318c714610299578063de35f5cb146102b7578063f2fde38b146102d5578063f89f25a3146102f15761010b565b8063950ce782146101e4578063a345758e14610200578063b7e2ce1d1461021c578063c17d2efe146102385761010b565b806362c06767116100de57806362c06767146101845780636b92c69c146101a0578063715018a6146101bc5780638da5cb5b146101c65761010b565b80631de26e16146101105780631fc8e3d31461012c57806328df30bc1461014857806338d52e0f14610166575b600080fd5b61012a600480360381019061012591906121ea565b61030d565b005b6101466004803603810190610141919061224e565b610998565b005b610150610ca5565b60405161015d91906122cf565b60405180910390f35b61016e610ccb565b60405161017b9190612349565b60405180910390f35b61019e600480360381019061019991906123ce565b610cef565b005b6101ba60048036038101906101b5919061224e565b610e28565b005b6101c4610f7d565b005b6101ce610f91565b6040516101db91906122cf565b60405180910390f35b6101fe60048036038101906101f99190612486565b610fba565b005b61021a60048036038101906102159190612520565b611425565b005b6102366004803603810190610231919061254d565b611439565b005b610252600480360381019061024d919061254d565b6115f8565b604051610260929190612676565b60405180910390f35b610283600480360381019061027e919061269f565b6117aa565b60405161029091906126fa565b60405180910390f35b6102a16117d9565b6040516102ae91906122cf565b60405180910390f35b6102bf6117ff565b6040516102cc9190612715565b60405180910390f35b6102ef60048036038101906102ea9190612520565b611805565b005b61030b60048036038101906103069190612520565b61188b565b005b61031561189f565b60006004600084815260200190815260200160002090508060030160009054906101000a900460ff1661037d576040517f08c379a00000000000000000000000000000000000000000000000000000000081526004016103749061278d565b60405180910390fd5b8060000160000160149054906101000a90046bffffffffffffffffffffffff166bffffffffffffffffffffffff1682146103ec576040517f08c379a00000000000000000000000000000000000000000000000000000000081526004016103e3906127f9565b60405180910390fd5b7f000000000000000000000000000000000000000000000000000000000000000073ffffffffffffffffffffffffffffffffffffffff166323b872dd3330856040518463ffffffff1660e01b815260040161044993929190612819565b6020604051808303816000875af1158015610468573d6000803e3d6000fd5b505050506040513d601f19601f8201168201806040525081019061048c919061287c565b6104cb576040517f08c379a00000000000000000000000000000000000000000000000000000000081526004016104c2906128f5565b60405180910390fd5b60006127108260000160010160049054906101000a900461ffff1661ffff16846104f59190612944565b6104ff91906129b5565b905060006127108360000160010160069054906101000a900461ffff1661ffff168561052b9190612944565b61053591906129b5565b905083818361054491906129e6565b10610584576040517f08c379a000000000000000000000000000000000000000000000000000000000815260040161057b90612a66565b60405180910390fd5b60008183866105939190612a86565b61059d9190612a86565b9050600083111561073957600073ffffffffffffffffffffffffffffffffffffffff16600260009054906101000a900473ffffffffffffffffffffffffffffffffffffffff1673ffffffffffffffffffffffffffffffffffffffff1603610639576040517f08c379a000000000000000000000000000000000000000000000000000000000815260040161063090612b06565b60405180910390fd5b7f000000000000000000000000000000000000000000000000000000000000000073ffffffffffffffffffffffffffffffffffffffff1663a9059cbb600260009054906101000a900473ffffffffffffffffffffffffffffffffffffffff16856040518363ffffffff1660e01b81526004016106b6929190612b26565b6020604051808303816000875af11580156106d5573d6000803e3d6000fd5b505050506040513d601f19601f820116820180604052508101906106f9919061287c565b610738576040517f08c379a000000000000000000000000000000000000000000000000000000000815260040161072f90612b9b565b60405180910390fd5b5b60008211156108d357600073ffffffffffffffffffffffffffffffffffffffff16600360009054906101000a900473ffffffffffffffffffffffffffffffffffffffff1673ffffffffffffffffffffffffffffffffffffffff16036107d3576040517f08c379a00000000000000000000000000000000000000000000000000000000081526004016107ca90612c07565b60405180910390fd5b7f000000000000000000000000000000000000000000000000000000000000000073ffffffffffffffffffffffffffffffffffffffff1663a9059cbb600360009054906101000a900473ffffffffffffffffffffffffffffffffffffffff16846040518363ffffffff1660e01b8152600401610850929190612b26565b6020604051808303816000875af115801561086f573d6000803e3d6000fd5b505050506040513d601f19601f82011682018060405250810190610893919061287c565b6108d2576040517f08c379a00000000000000000000000000000000000000000000000000000000081526004016108c990612c73565b60405180910390fd5b5b808460020160008282546108e791906129e6565b925050819055506000863360066000815461090190612c93565b91905081905560405160200161091993929190612d65565b60405160208183030381529060405280519060200120905080873373ffffffffffffffffffffffffffffffffffffffff167f5f17ed8cc73332ba3acd63248c4f673300260f0f5eeca4081ee679f776e7505e8986888a60405161097f9493929190612da2565b60405180910390a450505050506109946118e5565b5050565b6109a06118ee565b6000801b82036109e5576040517f08c379a00000000000000000000000000000000000000000000000000000000081526004016109dc90612e33565b60405180910390fd5b6004600083815260200190815260200160002060030160009054906101000a900460ff1615610a49576040517f08c379a0000000000000000000000000000000000000000000000000000000008152600401610a4090612e9f565b60405180910390fd5b610a5281611975565b604051806060016040528082803603810190610a6e9190613074565b815260200160008152602001600115158152506004600084815260200190815260200160002060008201518160000160008201518160000160006101000a81548173ffffffffffffffffffffffffffffffffffffffff021916908373ffffffffffffffffffffffffffffffffffffffff16021790555060208201518160000160146101000a8154816bffffffffffffffffffffffff02191690836bffffffffffffffffffffffff16021790555060408201518160010160006101000a81548163ffffffff021916908363ffffffff16021790555060608201518160010160046101000a81548161ffff021916908361ffff16021790555060808201518160010160066101000a81548161ffff021916908361ffff16021790555060a08201518160010160086101000a81548163ffffffff021916908363ffffffff16021790555050506020820151816002015560408201518160030160006101000a81548160ff021916908315150217905550905050806000016020810190610bf19190612520565b73ffffffffffffffffffffffffffffffffffffffff16827f1556ef3ab34a59ec3818bd03601ac6acffbf5dbf528832bbe8a84c114cb5f896836020016020810190610c3c91906130a1565b846040016020810190610c4f91906130ce565b856060016020810190610c6291906130fb565b866080016020810190610c7591906130fb565b8760a0016020810190610c8891906130ce565b604051610c99959493929190613155565b60405180910390a35050565b600260009054906101000a900473ffffffffffffffffffffffffffffffffffffffff1681565b7f000000000000000000000000000000000000000000000000000000000000000081565b610cf76118ee565b600073ffffffffffffffffffffffffffffffffffffffff168273ffffffffffffffffffffffffffffffffffffffff1603610d66576040517f08c379a0000000000000000000000000000000000000000000000000000000008152600401610d5d906131f4565b60405180910390fd5b8273ffffffffffffffffffffffffffffffffffffffff1663a9059cbb83836040518363ffffffff1660e01b8152600401610da1929190612b26565b6020604051808303816000875af1158015610dc0573d6000803e3d6000fd5b505050506040513d601f19601f82011682018060405250810190610de4919061287c565b610e23576040517f08c379a0000000000000000000000000000000000000000000000000000000008152600401610e1a90613260565b60405180910390fd5b505050565b610e306118ee565b60006004600084815260200190815260200160002090508060030160009054906101000a900460ff16610e98576040517f08c379a0000000000000000000000000000000000000000000000000000000008152600401610e8f9061278d565b60405180910390fd5b610ea182611975565b81816000018181610eb29190613673565b905050816000016020810190610ec89190612520565b73ffffffffffffffffffffffffffffffffffffffff16837fdf67d28f6df86978cf17e62da0ecac22df53791938b3d20bf2b6818c67bb40e2846020016020810190610f1391906130a1565b856040016020810190610f2691906130ce565b866060016020810190610f3991906130fb565b876080016020810190610f4c91906130fb565b8860a0016020810190610f5f91906130ce565b604051610f70959493929190613155565b60405180910390a3505050565b610f856118ee565b610f8f6000611b2e565b565b60008060009054906101000a900473ffffffffffffffffffffffffffffffffffffffff16905090565b610fc261189f565b60006004600088815260200190815260200160002090508060030160009054906101000a900460ff1661102a576040517f08c379a00000000000000000000000000000000000000000000000000000000081526004016110219061278d565b60405180910390fd5b8342111561106d576040517f08c379a0000000000000000000000000000000000000000000000000000000008152600401611064906136cd565b60405180910390fd5b60056000888152602001908152602001600020600087815260200190815260200160002060009054906101000a900460ff16156110df576040517f08c379a00000000000000000000000000000000000000000000000000000000081526004016110d690613739565b60405180910390fd5b60008511611122576040517f08c379a0000000000000000000000000000000000000000000000000000000008152600401611119906137a5565b60405180910390fd5b8060020154851115611169576040517f08c379a000000000000000000000000000000000000000000000000000000000815260040161116090613811565b60405180910390fd5b60006111a4308989338a8a60405160200161118996959493929190613831565b60405160208183030381529060405280519060200120611bf2565b905060006111f68286868080601f016020809104026020016040519081016040528093929190818152602001838380828437600081840152601f19601f82011690508083019250505050505050611c28565b90508260000160000160009054906101000a900473ffffffffffffffffffffffffffffffffffffffff1673ffffffffffffffffffffffffffffffffffffffff168173ffffffffffffffffffffffffffffffffffffffff161461128d576040517f08c379a0000000000000000000000000000000000000000000000000000000008152600401611284906138ed565b60405180910390fd5b6001600560008b815260200190815260200160002060008a815260200190815260200160002060006101000a81548160ff021916908315150217905550868360020160008282546112de9190612a86565b925050819055507f000000000000000000000000000000000000000000000000000000000000000073ffffffffffffffffffffffffffffffffffffffff1663a9059cbb33896040518363ffffffff1660e01b8152600401611340929190612b26565b6020604051808303816000875af115801561135f573d6000803e3d6000fd5b505050506040513d601f19601f82011682018060405250810190611383919061287c565b6113c2576040517f08c379a00000000000000000000000000000000000000000000000000000000081526004016113b990613260565b60405180910390fd5b87893373ffffffffffffffffffffffffffffffffffffffff167fcc6f759fc3cea3b9ecded82744f1856aec5a79f06df3bf358f4fdc8d1154ba838a60405161140a9190612715565b60405180910390a450505061141d6118e5565b505050505050565b61142d6118ee565b61143681611c54565b50565b6114416118ee565b60006004600083815260200190815260200160002090508060030160009054906101000a900460ff166114a9576040517f08c379a00000000000000000000000000000000000000000000000000000000081526004016114a09061278d565b60405180910390fd5b60008160020154146114f0576040517f08c379a00000000000000000000000000000000000000000000000000000000081526004016114e790613959565b60405180910390fd5b600460008381526020019081526020016000206000808201600080820160006101000a81549073ffffffffffffffffffffffffffffffffffffffff02191690556000820160146101000a8154906bffffffffffffffffffffffff02191690556001820160006101000a81549063ffffffff02191690556001820160046101000a81549061ffff02191690556001820160066101000a81549061ffff02191690556001820160086101000a81549063ffffffff0219169055505060028201600090556003820160006101000a81549060ff02191690555050817f51c582cfa1d6be5ddb95bb2b4fb9ca9382f9479ea9d8c977bd27c237fefe4cd760405160405180910390a25050565b6116006120fc565b6000806004600085815260200190815260200160002090508060030160009054906101000a900460ff16611669576040517f08c379a00000000000000000000000000000000000000000000000000000000081526004016116609061278d565b60405180910390fd5b806000018160020154816040518060c00160405290816000820160009054906101000a900473ffffffffffffffffffffffffffffffffffffffff1673ffffffffffffffffffffffffffffffffffffffff1673ffffffffffffffffffffffffffffffffffffffff1681526020016000820160149054906101000a90046bffffffffffffffffffffffff166bffffffffffffffffffffffff166bffffffffffffffffffffffff1681526020016001820160009054906101000a900463ffffffff1663ffffffff1663ffffffff1681526020016001820160049054906101000a900461ffff1661ffff1661ffff1681526020016001820160069054906101000a900461ffff1661ffff1661ffff1681526020016001820160089054906101000a900463ffffffff1663ffffffff1663ffffffff168152505091509250925050915091565b60056020528160005260406000206020528060005260406000206000915091509054906101000a900460ff1681565b600360009054906101000a900473ffffffffffffffffffffffffffffffffffffffff1681565b60065481565b61180d6118ee565b600073ffffffffffffffffffffffffffffffffffffffff168173ffffffffffffffffffffffffffffffffffffffff160361187f5760006040517f1e4fbdf700000000000000000000000000000000000000000000000000000000815260040161187691906122cf565b60405180910390fd5b61188881611b2e565b50565b6118936118ee565b61189c81611d4a565b50565b6002600154036118db576040517f3ee5aeb500000000000000000000000000000000000000000000000000000000815260040160405180910390fd5b6002600181905550565b60018081905550565b6118f6611e40565b73ffffffffffffffffffffffffffffffffffffffff16611914610f91565b73ffffffffffffffffffffffffffffffffffffffff161461197357611937611e40565b6040517f118cdaa700000000000000000000000000000000000000000000000000000000815260040161196a91906122cf565b60405180910390fd5b565b600073ffffffffffffffffffffffffffffffffffffffff168160000160208101906119a09190612520565b73ffffffffffffffffffffffffffffffffffffffff16036119f6576040517f08c379a00000000000000000000000000000000000000000000000000000000081526004016119ed906139c5565b60405180910390fd5b6000816020016020810190611a0b91906130a1565b6bffffffffffffffffffffffff1611611a59576040517f08c379a0000000000000000000000000000000000000000000000000000000008152600401611a5090613a31565b60405180910390fd5b6000816040016020810190611a6e91906130ce565b63ffffffff1611611ab4576040517f08c379a0000000000000000000000000000000000000000000000000000000008152600401611aab90613a9d565b60405180910390fd5b612710816080016020810190611aca91906130fb565b826060016020810190611add91906130fb565b611ae79190613abd565b61ffff1610611b2b576040517f08c379a0000000000000000000000000000000000000000000000000000000008152600401611b2290613b3f565b60405180910390fd5b50565b60008060009054906101000a900473ffffffffffffffffffffffffffffffffffffffff169050816000806101000a81548173ffffffffffffffffffffffffffffffffffffffff021916908373ffffffffffffffffffffffffffffffffffffffff1602179055508173ffffffffffffffffffffffffffffffffffffffff168173ffffffffffffffffffffffffffffffffffffffff167f8be0079c531659141344cd1fd0a4f28419497f9722a3daafe3b4186f6b6457e060405160405180910390a35050565b60007f19457468657265756d205369676e6564204d6573736167653a0a33320000000060005281601c52603c6000209050919050565b600080600080611c388686611e48565b925092509250611c488282611ea4565b82935050505092915050565b600073ffffffffffffffffffffffffffffffffffffffff168173ffffffffffffffffffffffffffffffffffffffff1603611cc3576040517f08c379a0000000000000000000000000000000000000000000000000000000008152600401611cba90613bab565b60405180910390fd5b80600260006101000a81548173ffffffffffffffffffffffffffffffffffffffff021916908373ffffffffffffffffffffffffffffffffffffffff1602179055508073ffffffffffffffffffffffffffffffffffffffff167f9292deb83ec2985897c3105a9b31094551a549df207ca4419e038cf3e7516c6260405160405180910390a250565b600073ffffffffffffffffffffffffffffffffffffffff168173ffffffffffffffffffffffffffffffffffffffff1603611db9576040517f08c379a0000000000000000000000000000000000000000000000000000000008152600401611db090613c17565b60405180910390fd5b80600360006101000a81548173ffffffffffffffffffffffffffffffffffffffff021916908373ffffffffffffffffffffffffffffffffffffffff1602179055508073ffffffffffffffffffffffffffffffffffffffff167fa077d464cb56f9c802de7883d4446526694da7f5de56c86c78dbe40074e8c76360405160405180910390a250565b600033905090565b60008060006041845103611e8d5760008060006020870151925060408701519150606087015160001a9050611e7f88828585612008565b955095509550505050611e9d565b60006002855160001b9250925092505b9250925092565b60006003811115611eb857611eb7613c37565b5b826003811115611ecb57611eca613c37565b5b03156120045760016003811115611ee557611ee4613c37565b5b826003811115611ef857611ef7613c37565b5b03611f2f576040517ff645eedf00000000000000000000000000000000000000000000000000000000815260040160405180910390fd5b60026003811115611f4357611f42613c37565b5b826003811115611f5657611f55613c37565b5b03611f9b578060001c6040517ffce698f7000000000000000000000000000000000000000000000000000000008152600401611f929190612715565b60405180910390fd5b600380811115611fae57611fad613c37565b5b826003811115611fc157611fc0613c37565b5b0361200357806040517fd78bce0c000000000000000000000000000000000000000000000000000000008152600401611ffa9190613c75565b60405180910390fd5b5b5050565b60008060007f7fffffffffffffffffffffffffffffff5d576e7357a4501ddfe92f46681b20a08460001c11156120485760006003859250925092506120f2565b60006001888888886040516000815260200160405260405161206d9493929190613cac565b6020604051602081039080840390855afa15801561208f573d6000803e3d6000fd5b505050602060405103519050600073ffffffffffffffffffffffffffffffffffffffff168173ffffffffffffffffffffffffffffffffffffffff16036120e357600060016000801b935093509350506120f2565b8060008060001b935093509350505b9450945094915050565b6040518060c00160405280600073ffffffffffffffffffffffffffffffffffffffff16815260200160006bffffffffffffffffffffffff168152602001600063ffffffff168152602001600061ffff168152602001600061ffff168152602001600063ffffffff1681525090565b6000604051905090565b600080fd5b600080fd5b6000819050919050565b6121918161217e565b811461219c57600080fd5b50565b6000813590506121ae81612188565b92915050565b6000819050919050565b6121c7816121b4565b81146121d257600080fd5b50565b6000813590506121e4816121be565b92915050565b6000806040838503121561220157612200612174565b5b600061220f8582860161219f565b9250506020612220858286016121d5565b9150509250929050565b600080fd5b600060c082840312156122455761224461222a565b5b81905092915050565b60008060e0838503121561226557612264612174565b5b60006122738582860161219f565b92505060206122848582860161222f565b9150509250929050565b600073ffffffffffffffffffffffffffffffffffffffff82169050919050565b60006122b98261228e565b9050919050565b6122c9816122ae565b82525050565b60006020820190506122e460008301846122c0565b92915050565b6000819050919050565b600061230f61230a6123058461228e565b6122ea565b61228e565b9050919050565b6000612321826122f4565b9050919050565b600061233382612316565b9050919050565b61234381612328565b82525050565b600060208201905061235e600083018461233a565b92915050565b600061236f826122ae565b9050919050565b61237f81612364565b811461238a57600080fd5b50565b60008135905061239c81612376565b92915050565b6123ab816122ae565b81146123b657600080fd5b50565b6000813590506123c8816123a2565b92915050565b6000806000606084860312156123e7576123e6612174565b5b60006123f58682870161238d565b9350506020612406868287016123b9565b9250506040612417868287016121d5565b9150509250925092565b600080fd5b600080fd5b600080fd5b60008083601f84011261244657612445612421565b5b8235905067ffffffffffffffff81111561246357612462612426565b5b60208301915083600182028301111561247f5761247e61242b565b5b9250929050565b60008060008060008060a087890312156124a3576124a2612174565b5b60006124b189828a0161219f565b96505060206124c289828a0161219f565b95505060406124d389828a016121d5565b94505060606124e489828a016121d5565b935050608087013567ffffffffffffffff81111561250557612504612179565b5b61251189828a01612430565b92509250509295509295509295565b60006020828403121561253657612535612174565b5b6000612544848285016123b9565b91505092915050565b60006020828403121561256357612562612174565b5b60006125718482850161219f565b91505092915050565b612583816122ae565b82525050565b60006bffffffffffffffffffffffff82169050919050565b6125aa81612589565b82525050565b600063ffffffff82169050919050565b6125c9816125b0565b82525050565b600061ffff82169050919050565b6125e6816125cf565b82525050565b60c082016000820151612602600085018261257a565b50602082015161261560208501826125a1565b50604082015161262860408501826125c0565b50606082015161263b60608501826125dd565b50608082015161264e60808501826125dd565b5060a082015161266160a08501826125c0565b50505050565b612670816121b4565b82525050565b600060e08201905061268b60008301856125ec565b61269860c0830184612667565b9392505050565b600080604083850312156126b6576126b5612174565b5b60006126c48582860161219f565b92505060206126d58582860161219f565b9150509250929050565b60008115159050919050565b6126f4816126df565b82525050565b600060208201905061270f60008301846126eb565b92915050565b600060208201905061272a6000830184612667565b92915050565b600082825260208201905092915050565b7f736572766572206d697373696e67000000000000000000000000000000000000600082015250565b6000612777600e83612730565b915061278282612741565b602082019050919050565b600060208201905081810360008301526127a68161276a565b9050919050565b7f696e76616c6964206275792d696e000000000000000000000000000000000000600082015250565b60006127e3600e83612730565b91506127ee826127ad565b602082019050919050565b60006020820190508181036000830152612812816127d6565b9050919050565b600060608201905061282e60008301866122c0565b61283b60208301856122c0565b6128486040830184612667565b949350505050565b612859816126df565b811461286457600080fd5b50565b60008151905061287681612850565b92915050565b60006020828403121561289257612891612174565b5b60006128a084828501612867565b91505092915050565b7f7472616e7366657246726f6d206661696c000000000000000000000000000000600082015250565b60006128df601183612730565b91506128ea826128a9565b602082019050919050565b6000602082019050818103600083015261290e816128d2565b9050919050565b7f4e487b7100000000000000000000000000000000000000000000000000000000600052601160045260246000fd5b600061294f826121b4565b915061295a836121b4565b9250828202612968816121b4565b9150828204841483151761297f5761297e612915565b5b5092915050565b7f4e487b7100000000000000000000000000000000000000000000000000000000600052601260045260246000fd5b60006129c0826121b4565b91506129cb836121b4565b9250826129db576129da612986565b5b828204905092915050565b60006129f1826121b4565b91506129fc836121b4565b9250828201905080821115612a1457612a13612915565b5b92915050565b7f6665657320746f6f206869676800000000000000000000000000000000000000600082015250565b6000612a50600d83612730565b9150612a5b82612a1a565b602082019050919050565b60006020820190508181036000830152612a7f81612a43565b9050919050565b6000612a91826121b4565b9150612a9c836121b4565b9250828203905081811115612ab457612ab3612915565b5b92915050565b7f72616b6520726563697069656e7420756e736574000000000000000000000000600082015250565b6000612af0601483612730565b9150612afb82612aba565b602082019050919050565b60006020820190508181036000830152612b1f81612ae3565b9050919050565b6000604082019050612b3b60008301856122c0565b612b486020830184612667565b9392505050565b7f72616b65207472616e73666572206661696c0000000000000000000000000000600082015250565b6000612b85601283612730565b9150612b9082612b4f565b602082019050919050565b60006020820190508181036000830152612bb481612b78565b9050919050565b7f776f726c6420726563697069656e7420756e7365740000000000000000000000600082015250565b6000612bf1601583612730565b9150612bfc82612bbb565b602082019050919050565b60006020820190508181036000830152612c2081612be4565b9050919050565b7f776f726c64207472616e73666572206661696c00000000000000000000000000600082015250565b6000612c5d601383612730565b9150612c6882612c27565b602082019050919050565b60006020820190508181036000830152612c8c81612c50565b9050919050565b6000612c9e826121b4565b91507fffffffffffffffffffffffffffffffffffffffffffffffffffffffffffffffff8203612cd057612ccf612915565b5b600182019050919050565b6000819050919050565b612cf6612cf18261217e565b612cdb565b82525050565b60008160601b9050919050565b6000612d1482612cfc565b9050919050565b6000612d2682612d09565b9050919050565b612d3e612d39826122ae565b612d1b565b82525050565b6000819050919050565b612d5f612d5a826121b4565b612d44565b82525050565b6000612d718286612ce5565b602082019150612d818285612d2d565b601482019150612d918284612d4e565b602082019150819050949350505050565b6000608082019050612db76000830187612667565b612dc46020830186612667565b612dd16040830185612667565b612dde6060830184612667565b95945050505050565b7f73657276657249643d3000000000000000000000000000000000000000000000600082015250565b6000612e1d600a83612730565b9150612e2882612de7565b602082019050919050565b60006020820190508181036000830152612e4c81612e10565b9050919050565b7f7365727665722065786973747300000000000000000000000000000000000000600082015250565b6000612e89600d83612730565b9150612e9482612e53565b602082019050919050565b60006020820190508181036000830152612eb881612e7c565b9050919050565b600080fd5b6000601f19601f8301169050919050565b7f4e487b7100000000000000000000000000000000000000000000000000000000600052604160045260246000fd5b612f0d82612ec4565b810181811067ffffffffffffffff82111715612f2c57612f2b612ed5565b5b80604052505050565b6000612f3f61216a565b9050612f4b8282612f04565b919050565b612f5981612589565b8114612f6457600080fd5b50565b600081359050612f7681612f50565b92915050565b612f85816125b0565b8114612f9057600080fd5b50565b600081359050612fa281612f7c565b92915050565b612fb1816125cf565b8114612fbc57600080fd5b50565b600081359050612fce81612fa8565b92915050565b600060c08284031215612fea57612fe9612ebf565b5b612ff460c0612f35565b90506000613004848285016123b9565b600083015250602061301884828501612f67565b602083015250604061302c84828501612f93565b604083015250606061304084828501612fbf565b606083015250608061305484828501612fbf565b60808301525060a061306884828501612f93565b60a08301525092915050565b600060c0828403121561308a57613089612174565b5b600061309884828501612fd4565b91505092915050565b6000602082840312156130b7576130b6612174565b5b60006130c584828501612f67565b91505092915050565b6000602082840312156130e4576130e3612174565b5b60006130f284828501612f93565b91505092915050565b60006020828403121561311157613110612174565b5b600061311f84828501612fbf565b91505092915050565b61313181612589565b82525050565b613140816125b0565b82525050565b61314f816125cf565b82525050565b600060a08201905061316a6000830188613128565b6131776020830187613137565b6131846040830186613146565b6131916060830185613146565b61319e6080830184613137565b9695505050505050565b7f746f3d3000000000000000000000000000000000000000000000000000000000600082015250565b60006131de600483612730565b91506131e9826131a8565b602082019050919050565b6000602082019050818103600083015261320d816131d1565b9050919050565b7f7472616e73666572206661696c00000000000000000000000000000000000000600082015250565b600061324a600d83612730565b915061325582613214565b602082019050919050565b600060208201905081810360008301526132798161323d565b9050919050565b6000813561328d816123a2565b80915050919050565b60008160001b9050919050565b600073ffffffffffffffffffffffffffffffffffffffff6132c384613296565b9350801983169250808416831791505092915050565b60006132e482612316565b9050919050565b6000819050919050565b6132fe826132d9565b61331161330a826132eb565b83546132a3565b8255505050565b6000813561332581612f50565b80915050919050565b60008160a01b9050919050565b60007fffffffffffffffffffffffff00000000000000000000000000000000000000006133678461332e565b9350801983169250808416831791505092915050565b600061339861339361338e84612589565b6122ea565b612589565b9050919050565b6000819050919050565b6133b28261337d565b6133c56133be8261339f565b835461333b565b8255505050565b600081356133d981612f7c565b80915050919050565b600063ffffffff6133f284613296565b9350801983169250808416831791505092915050565b600061342361341e613419846125b0565b6122ea565b6125b0565b9050919050565b6000819050919050565b61343d82613408565b6134506134498261342a565b83546133e2565b8255505050565b6000813561346481612fa8565b80915050919050565b60008160201b9050919050565b600065ffff0000000061348c8461346d565b9350801983169250808416831791505092915050565b60006134bd6134b86134b3846125cf565b6122ea565b6125cf565b9050919050565b6000819050919050565b6134d7826134a2565b6134ea6134e3826134c4565b835461347a565b8255505050565b60008160301b9050919050565b600067ffff000000000000613512846134f1565b9350801983169250808416831791505092915050565b613531826134a2565b61354461353d826134c4565b83546134fe565b8255505050565b60008160401b9050919050565b60006bffffffff00000000000000006135708461354b565b9350801983169250808416831791505092915050565b61358f82613408565b6135a261359b8261342a565b8354613558565b8255505050565b6000810160008301806135bb81613280565b90506135c781846132f5565b5050506000810160208301806135dc81613318565b90506135e881846133a9565b5050506001810160408301806135fd816133cc565b90506136098184613434565b50505060018101606083018061361e81613457565b905061362a81846134ce565b50505060018101608083018061363f81613457565b905061364b8184613528565b5050506001810160a0830180613660816133cc565b905061366c8184613586565b5050505050565b61367d82826135a9565b5050565b7f7469636b65742065787069726564000000000000000000000000000000000000600082015250565b60006136b7600e83612730565b91506136c282613681565b602082019050919050565b600060208201905081810360008301526136e6816136aa565b9050919050565b7f73657373696f6e20636c61696d65640000000000000000000000000000000000600082015250565b6000613723600f83612730565b915061372e826136ed565b602082019050919050565b6000602082019050818103600083015261375281613716565b9050919050565b7f7061796f75743d30000000000000000000000000000000000000000000000000600082015250565b600061378f600883612730565b915061379a82613759565b602082019050919050565b600060208201905081810360008301526137be81613782565b9050919050565b7f696e73756666696369656e742062616e6b726f6c6c0000000000000000000000600082015250565b60006137fb601583612730565b9150613806826137c5565b602082019050919050565b6000602082019050818103600083015261382a816137ee565b9050919050565b600061383d8289612d2d565b60148201915061384d8288612ce5565b60208201915061385d8287612ce5565b60208201915061386d8286612d2d565b60148201915061387d8285612d4e565b60208201915061388d8284612d4e565b602082019150819050979650505050505050565b7f626164207369676e617475726500000000000000000000000000000000000000600082015250565b60006138d7600d83612730565b91506138e2826138a1565b602082019050919050565b60006020820190508181036000830152613906816138ca565b9050919050565b7f62616e6b726f6c6c206e6f7420656d7074790000000000000000000000000000600082015250565b6000613943601283612730565b915061394e8261390d565b602082019050919050565b6000602082019050818103600083015261397281613936565b9050919050565b7f636f6e74726f6c6c65723d300000000000000000000000000000000000000000600082015250565b60006139af600c83612730565b91506139ba82613979565b602082019050919050565b600060208201905081810360008301526139de816139a2565b9050919050565b7f627579496e3d3000000000000000000000000000000000000000000000000000600082015250565b6000613a1b600783612730565b9150613a26826139e5565b602082019050919050565b60006020820190508181036000830152613a4a81613a0e565b9050919050565b7f4d50443d30000000000000000000000000000000000000000000000000000000600082015250565b6000613a87600583612730565b9150613a9282613a51565b602082019050919050565b60006020820190508181036000830152613ab681613a7a565b9050919050565b6000613ac8826125cf565b9150613ad3836125cf565b9250828201905061ffff811115613aed57613aec612915565b5b92915050565b7f66656573203e3d20313030250000000000000000000000000000000000000000600082015250565b6000613b29600c83612730565b9150613b3482613af3565b602082019050919050565b60006020820190508181036000830152613b5881613b1c565b9050919050565b7f72616b6520726563697069656e743d3000000000000000000000000000000000600082015250565b6000613b95601083612730565b9150613ba082613b5f565b602082019050919050565b60006020820190508181036000830152613bc481613b88565b9050919050565b7f776f726c6420726563697069656e743d30000000000000000000000000000000600082015250565b6000613c01601183612730565b9150613c0c82613bcb565b602082019050919050565b60006020820190508181036000830152613c3081613bf4565b9050919050565b7f4e487b7100000000000000000000000000000000000000000000000000000000600052602160045260246000fd5b613c6f8161217e565b82525050565b6000602082019050613c8a6000830184613c66565b92915050565b600060ff82169050919050565b613ca681613c90565b82525050565b6000608082019050613cc16000830187613c66565b613cce6020830186613c9d565b613cdb6040830185613c66565b613ce86060830184613c66565b9594505050505056fea26469706673582212201dff05fd7f65769cfa9bf188826b29daaff474ef610c78c8ebee2aea2994009364736f6c63430008140033",
  "linkReferences": {},
  "deployedLinkReferences": {}
}