{
  "_format": "hh-sol-artifact-1",
  "contractName": "AgarCash",
  "sourceName": "contracts/AgarCash.sol",
  "abi": [
    {
      "inputs": [
        {
          "internalType": "address",
          "name": "_usdc",
          "type": "address"
        },
        {
          "internalType": "address",
          "name": "_treasury",
          "type": "address"
        },
        {
          "internalType": "address",
          "name": "_server",
          "type": "address"
        },
        {
          "components": [
            {
              "internalType": "uint256",
              "name": "baseBuyIn",
              "type": "uint256"
            },
            {
              "internalType": "uint256",
              "name": "massPerDollar",
              "type": "uint256"
            },
            {
              "internalType": "uint256",
              "name": "rakeBps",
              "type": "uint256"
            },
            {
              "internalType": "uint256",
              "name": "worldBps",
              "type": "uint256"
            }
          ],
          "internalType": "struct AgarCash.LobbyParams",
          "name": "_lobby",
          "type": "tuple"
        }
      ],
      "stateMutability": "nonpayable",
      "type": "constructor"
    },
    {
      "inputs": [
        {
          "internalType": "address",
          "name": "owner",
          "type": "address"
        }
      ],
      "name": "OwnableInvalidOwner",
      "type": "error"
    },
    {
      "inputs": [
        {
          "internalType": "address",
          "name": "account",
          "type": "address"
        }
      ],
      "name": "OwnableUnauthorizedAccount",
      "type": "error"
    },
    {
      "anonymous": false,
      "inputs": [
        {
          "indexed": true,
          "internalType": "address",
          "name": "player",
          "type": "address"
        },
        {
          "indexed": false,
          "internalType": "uint256",
          "name": "amount",
          "type": "uint256"
        }
      ],
      "name": "Claim",
      "type": "event"
    },
    {
      "anonymous": false,
      "inputs": [
        {
          "indexed": true,
          "internalType": "address",
          "name": "player",
          "type": "address"
        },
        {
          "indexed": false,
          "internalType": "uint256",
          "name": "spawnAmount",
          "type": "uint256"
        },
        {
          "indexed": false,
          "internalType": "uint256",
          "name": "rakeAmount",
          "type": "uint256"
        },
        {
          "indexed": false,
          "internalType": "uint256",
          "name": "worldAmount",
          "type": "uint256"
        }
      ],
      "name": "Deposit",
      "type": "event"
    },
    {
      "anonymous": false,
      "inputs": [
        {
          "indexed": false,
          "internalType": "uint256",
          "name": "baseBuyIn",
          "type": "uint256"
        },
        {
          "indexed": false,
          "internalType": "uint256",
          "name": "massPerDollar",
          "type": "uint256"
        },
        {
          "indexed": false,
          "internalType": "uint256",
          "name": "rakeBps",
          "type": "uint256"
        },
        {
          "indexed": false,
          "internalType": "uint256",
          "name": "worldBps",
          "type": "uint256"
        }
      ],
      "name": "LobbyUpdated",
      "type": "event"
    },
    {
      "anonymous": false,
      "inputs": [
        {
          "indexed": true,
          "internalType": "address",
          "name": "previousOwner",
          "type": "address"
        },
        {
          "indexed": true,
          "internalType": "address",
          "name": "newOwner",
          "type": "address"
        }
      ],
      "name": "OwnershipTransferred",
      "type": "event"
    },
    {
      "anonymous": false,
      "inputs": [
        {
          "indexed": true,
          "internalType": "bytes32",
          "name": "roundId",
          "type": "bytes32"
        },
        {
          "indexed": false,
          "internalType": "uint256",
          "name": "totalPayoutUSDC",
          "type": "uint256"
        }
      ],
      "name": "RoundCommitted",
      "type": "event"
    },
    {
      "anonymous": false,
      "inputs": [
        {
          "indexed": false,
          "internalType": "address",
          "name": "newServer",
          "type": "address"
        }
      ],
      "name": "ServerUpdated",
      "type": "event"
    },
    {
      "anonymous": false,
      "inputs": [
        {
          "indexed": false,
          "internalType": "address",
          "name": "newTreasury",
          "type": "address"
        }
      ],
      "name": "TreasuryUpdated",
      "type": "event"
    },
    {
      "inputs": [],
      "name": "claim",
      "outputs": [],
      "stateMutability": "nonpayable",
      "type": "function"
    },
    {
      "inputs": [
        {
          "internalType": "address",
          "name": "",
          "type": "address"
        }
      ],
      "name": "claimable",
      "outputs": [
        {
          "internalType": "uint256",
          "name": "",
          "type": "uint256"
        }
      ],
      "stateMutability": "view",
      "type": "function"
    },
    {
      "inputs": [
        {
          "internalType": "bytes32",
          "name": "roundId",
          "type": "bytes32"
        },
        {
          "internalType": "address[]",
          "name": "players",
          "type": "address[]"
        },
        {
          "internalType": "uint256[]",
          "name": "finalMasses",
          "type": "uint256[]"
        }
      ],
      "name": "commitRoundResults",
      "outputs": [],
      "stateMutability": "nonpayable",
      "type": "function"
    },
    {
      "inputs": [
        {
          "internalType": "uint256",
          "name": "amount",
          "type": "uint256"
        }
      ],
      "name": "deposit",
      "outputs": [],
      "stateMutability": "nonpayable",
      "type": "function"
    },
    {
      "inputs": [],
      "name": "lobby",
      "outputs": [
        {
          "internalType": "uint256",
          "name": "baseBuyIn",
          "type": "uint256"
        },
        {
          "internalType": "uint256",
          "name": "massPerDollar",
          "type": "uint256"
        },
        {
          "internalType": "uint256",
          "name": "rakeBps",
          "type": "uint256"
        },
        {
          "internalType": "uint256",
          "name": "worldBps",
          "type": "uint256"
        }
      ],
      "stateMutability": "view",
      "type": "function"
    },
    {
      "inputs": [],
      "name": "owner",
      "outputs": [
        {
          "internalType": "address",
          "name": "",
          "type": "address"
        }
      ],
      "stateMutability": "view",
      "type": "function"
    },
    {
      "inputs": [],
      "name": "renounceOwnership",
      "outputs": [],
      "stateMutability": "nonpayable",
      "type": "function"
    },
    {
      "inputs": [],
      "name": "server",
      "outputs": [
        {
          "internalType": "address",
          "name": "",
          "type": "address"
        }
      ],
      "stateMutability": "view",
      "type": "function"
    },
    {
      "inputs": [
        {
          "components": [
            {
              "internalType": "uint256",
              "name": "baseBuyIn",
              "type": "uint256"
            },
            {
              "internalType": "uint256",
              "name": "massPerDollar",
              "type": "uint256"
            },
            {
              "internalType": "uint256",
              "name": "rakeBps",
              "type": "uint256"
            },
            {
              "internalType": "uint256",
              "name": "worldBps",
              "type": "uint256"
            }
          ],
          "internalType": "struct AgarCash.LobbyParams",
          "name": "_lobby",
          "type": "tuple"
        }
      ],
      "name": "setLobbyParams",
      "outputs": [],
      "stateMutability": "nonpayable",
      "type": "function"
    },
    {
      "inputs": [
        {
          "internalType": "address",
          "name": "_server",
          "type": "address"
        }
      ],
      "name": "setServer",
      "outputs": [],
      "stateMutability": "nonpayable",
      "type": "function"
    },
    {
      "inputs": [
        {
          "internalType": "address",
          "name": "_treasury",
          "type": "address"
        }
      ],
      "name": "setTreasury",
      "outputs": [],
      "stateMutability": "nonpayable",
      "type": "function"
    },
    {
      "inputs": [],
      "name": "totalPendingClaims",
      "outputs": [
        {
          "internalType": "uint256",
          "name": "",
          "type": "uint256"
        }
      ],
      "stateMutability": "view",
      "type": "function"
    },
    {
      "inputs": [
        {
          "internalType": "address",
          "name": "newOwner",
          "type": "address"
        }
      ],
      "name": "transferOwnership",
      "outputs": [],
      "stateMutability": "nonpayable",
      "type": "function"
    },
    {
      "inputs": [],
      "name": "treasury",
      "outputs": [
        {
          "internalType": "address",
          "name": "",
          "type": "address"
        }
      ],
      "stateMutability": "view",
      "type": "function"
    },
    {
      "inputs": [],
      "name": "usdc",
      "outputs": [
        {
          "internalType": "contract IERC20",
          "name": "",
          "type": "address"
        }
      ],
      "stateMutability": "view",
      "type": "function"
    }
  ],
  "bytecode": "0x60806040523480156200001157600080fd5b5060405162001ee038038062001ee083398181016040528101906200003791906200044c565b33600073ffffffffffffffffffffffffffffffffffffffff168173ffffffffffffffffffffffffffffffffffffffff1603620000ad5760006040517f1e4fbdf7000000000000000000000000000000000000000000000000000000008152600401620000a49190620004cf565b60405180910390fd5b620000be81620001ba60201b60201c565b5083600160006101000a81548173ffffffffffffffffffffffffffffffffffffffff021916908373ffffffffffffffffffffffffffffffffffffffff16021790555082600260006101000a81548173ffffffffffffffffffffffffffffffffffffffff021916908373ffffffffffffffffffffffffffffffffffffffff16021790555081600360006101000a81548173ffffffffffffffffffffffffffffffffffffffff021916908373ffffffffffffffffffffffffffffffffffffffff1602179055508060046000820151816000015560208201518160010155604082015181600201556060820151816003015590505050505050620004ec565b60008060009054906101000a900473ffffffffffffffffffffffffffffffffffffffff169050816000806101000a81548173ffffffffffffffffffffffffffffffffffffffff021916908373ffffffffffffffffffffffffffffffffffffffff1602179055508173ffffffffffffffffffffffffffffffffffffffff168173ffffffffffffffffffffffffffffffffffffffff167f8be0079c531659141344cd1fd0a4f28419497f9722a3daafe3b4186f6b6457e060405160405180910390a35050565b6000604051905090565b600080fd5b600073ffffffffffffffffffffffffffffffffffffffff82169050919050565b6000620002ba826200028d565b9050919050565b620002cc81620002ad565b8114620002d857600080fd5b50565b600081519050620002ec81620002c1565b92915050565b600080fd5b6000601f19601f8301169050919050565b7f4e487b7100000000000000000000000000000000000000000000000000000000600052604160045260246000fd5b6200034282620002f7565b810181811067ffffffffffffffff8211171562000364576200036362000308565b5b80604052505050565b6000620003796200027e565b905062000387828262000337565b919050565b6000819050919050565b620003a1816200038c565b8114620003ad57600080fd5b50565b600081519050620003c18162000396565b92915050565b600060808284031215620003e057620003df620002f2565b5b620003ec60806200036d565b90506000620003fe84828501620003b0565b60008301525060206200041484828501620003b0565b60208301525060406200042a84828501620003b0565b60408301525060606200044084828501620003b0565b60608301525092915050565b60008060008060e0858703121562000469576200046862000288565b5b60006200047987828801620002db565b94505060206200048c87828801620002db565b93505060406200049f87828801620002db565b9250506060620004b287828801620003c7565b91505092959194509250565b620004c981620002ad565b82525050565b6000602082019050620004e66000830184620004be565b92915050565b6119e480620004fc6000396000f3fe608060405234801561001057600080fd5b50600436106100f55760003560e01c8063715018a611610097578063f0f4426011610066578063f0f442601461022b578063f19a0b5414610247578063f2fde38b14610263578063fd922a421461027f576100f5565b8063715018a6146101cb5780638da5cb5b146101d557806398af58ad146101f3578063b6b55f251461020f576100f5565b80634e71d92d116100d35780634e71d92d1461016457806354faf46b1461016e57806361d027b31461018f57806370bf2381146101ad576100f5565b8063158357f4146100fa5780633e413bee14610116578063402914f514610134575b600080fd5b610114600480360381019061010f919061103d565b61029d565b005b61011e610323565b60405161012b91906110e9565b60405180910390f35b61014e60048036038101906101499190611142565b610349565b60405161015b919061117e565b60405180910390f35b61016c610361565b005b610176610576565b6040516101869493929190611199565b60405180910390f35b610197610594565b6040516101a491906111ed565b60405180910390f35b6101b56105ba565b6040516101c2919061117e565b60405180910390f35b6101d36105c0565b005b6101dd6105d4565b6040516101ea91906111ed565b60405180910390f35b61020d600480360381019061020891906112f9565b6105fd565b005b6102296004803603810190610224919061138e565b6108f5565b005b61024560048036038101906102409190611142565b610be5565b005b610261600480360381019061025c9190611142565b610c68565b005b61027d60048036038101906102789190611142565b610ceb565b005b610287610d71565b60405161029491906111ed565b60405180910390f35b6102a5610d97565b806004600082015181600001556020820151816001015560408201518160020155606082015181600301559050507f0310533ffdccd6634b46bb5c3e391cd9cdcb0e71a095841dc4b5e0583e23ba5081600001518260200151836040015184606001516040516103189493929190611199565b60405180910390a150565b600160009054906101000a900473ffffffffffffffffffffffffffffffffffffffff1681565b60086020528060005260406000206000915090505481565b6000600860003373ffffffffffffffffffffffffffffffffffffffff1673ffffffffffffffffffffffffffffffffffffffff168152602001908152602001600020549050600081116103e8576040517f08c379a00000000000000000000000000000000000000000000000000000000081526004016103df90611418565b60405180910390fd5b6000600860003373ffffffffffffffffffffffffffffffffffffffff1673ffffffffffffffffffffffffffffffffffffffff16815260200190815260200160002081905550806009600082825461043f9190611467565b92505081905550600160009054906101000a900473ffffffffffffffffffffffffffffffffffffffff1673ffffffffffffffffffffffffffffffffffffffff1663a9059cbb33836040518363ffffffff1660e01b81526004016104a392919061149b565b6020604051808303816000875af11580156104c2573d6000803e3d6000fd5b505050506040513d601f19601f820116820180604052508101906104e691906114fc565b610525576040517f08c379a000000000000000000000000000000000000000000000000000000000815260040161051c90611575565b60405180910390fd5b3373ffffffffffffffffffffffffffffffffffffffff167f47cee97cb7acd717b3c0aa1435d004cd5b3c8c57d70dbceb4e4458bbd60e39d48260405161056b919061117e565b60405180910390a250565b60048060000154908060010154908060020154908060030154905084565b600260009054906101000a900473ffffffffffffffffffffffffffffffffffffffff1681565b60095481565b6105c8610d97565b6105d26000610e1e565b565b60008060009054906101000a900473ffffffffffffffffffffffffffffffffffffffff16905090565b600360009054906101000a900473ffffffffffffffffffffffffffffffffffffffff1673ffffffffffffffffffffffffffffffffffffffff163373ffffffffffffffffffffffffffffffffffffffff161461068d576040517f08c379a0000000000000000000000000000000000000000000000000000000008152600401610684906115e1565b60405180910390fd5b8181905084849050146106d5576040517f08c379a00000000000000000000000000000000000000000000000000000000081526004016106cc9061164d565b60405180910390fd5b6000805b858590508110156107bb5760006004600101548585848181106106ff576106fe61166d565b5b9050602002013561071091906116cb565b905060008111156107a75780600860008989868181106107335761073261166d565b5b90506020020160208101906107489190611142565b73ffffffffffffffffffffffffffffffffffffffff1673ffffffffffffffffffffffffffffffffffffffff168152602001908152602001600020600082825461079191906116fc565b9250508190555080836107a491906116fc565b92505b5080806107b390611730565b9150506106d9565b5080600960008282546107ce91906116fc565b92505081905550600954600160009054906101000a900473ffffffffffffffffffffffffffffffffffffffff1673ffffffffffffffffffffffffffffffffffffffff166370a08231306040518263ffffffff1660e01b815260040161083391906111ed565b602060405180830381865afa158015610850573d6000803e3d6000fd5b505050506040513d601f19601f82011682018060405250810190610874919061178d565b10156108b5576040517f08c379a00000000000000000000000000000000000000000000000000000000081526004016108ac90611806565b60405180910390fd5b857ff82ecd1c689bc502ee1fb610844a267cfc0be9257c0f941269aa447ed1b7dfbe826040516108e5919061117e565b60405180910390a2505050505050565b600460000154811461093c576040517f08c379a000000000000000000000000000000000000000000000000000000000815260040161093390611872565b60405180910390fd5b6000600160009054906101000a900473ffffffffffffffffffffffffffffffffffffffff1673ffffffffffffffffffffffffffffffffffffffff166323b872dd3330856040518463ffffffff1660e01b815260040161099d93929190611892565b6020604051808303816000875af11580156109bc573d6000803e3d6000fd5b505050506040513d601f19601f820116820180604052508101906109e091906114fc565b905080610a22576040517f08c379a0000000000000000000000000000000000000000000000000000000008152600401610a1990611575565b60405180910390fd5b600061271060046002015484610a3891906118c9565b610a4291906116cb565b9050600061271060046003015485610a5a91906118c9565b610a6491906116cb565b90506000818386610a759190611467565b610a7f9190611467565b90506000831115610b8c57600160009054906101000a900473ffffffffffffffffffffffffffffffffffffffff1673ffffffffffffffffffffffffffffffffffffffff1663a9059cbb600260009054906101000a900473ffffffffffffffffffffffffffffffffffffffff16856040518363ffffffff1660e01b8152600401610b0992919061149b565b6020604051808303816000875af1158015610b28573d6000803e3d6000fd5b505050506040513d601f19601f82011682018060405250810190610b4c91906114fc565b610b8b576040517f08c379a0000000000000000000000000000000000000000000000000000000008152600401610b8290611957565b60405180910390fd5b5b3373ffffffffffffffffffffffffffffffffffffffff167f36af321ec8d3c75236829c5317affd40ddb308863a1236d2d277a4025cccee1e828585604051610bd693929190611977565b60405180910390a25050505050565b610bed610d97565b80600260006101000a81548173ffffffffffffffffffffffffffffffffffffffff021916908373ffffffffffffffffffffffffffffffffffffffff1602179055507f7dae230f18360d76a040c81f050aa14eb9d6dc7901b20fc5d855e2a20fe814d181604051610c5d91906111ed565b60405180910390a150565b610c70610d97565b80600360006101000a81548173ffffffffffffffffffffffffffffffffffffffff021916908373ffffffffffffffffffffffffffffffffffffffff1602179055507f9c29ab3236ec9f8324cf54a7fe86a185c8bcf7cc84de122fa658fc556c56951e81604051610ce091906111ed565b60405180910390a150565b610cf3610d97565b600073ffffffffffffffffffffffffffffffffffffffff168173ffffffffffffffffffffffffffffffffffffffff1603610d655760006040517f1e4fbdf7000000000000000000000000000000000000000000000000000000008152600401610d5c91906111ed565b60405180910390fd5b610d6e81610e1e565b50565b600360009054906101000a900473ffffffffffffffffffffffffffffffffffffffff1681565b610d9f610ee2565b73ffffffffffffffffffffffffffffffffffffffff16610dbd6105d4565b73ffffffffffffffffffffffffffffffffffffffff1614610e1c57610de0610ee2565b6040517f118cdaa7000000000000000000000000000000000000000000000000000000008152600401610e1391906111ed565b60405180910390fd5b565b60008060009054906101000a900473ffffffffffffffffffffffffffffffffffffffff169050816000806101000a81548173ffffffffffffffffffffffffffffffffffffffff021916908373ffffffffffffffffffffffffffffffffffffffff1602179055508173ffffffffffffffffffffffffffffffffffffffff168173ffffffffffffffffffffffffffffffffffffffff167f8be0079c531659141344cd1fd0a4f28419497f9722a3daafe3b4186f6b6457e060405160405180910390a35050565b600033905090565b6000604051905090565b600080fd5b600080fd5b600080fd5b6000601f19601f8301169050919050565b7f4e487b7100000000000000000000000000000000000000000000000000000000600052604160045260246000fd5b610f4c82610f03565b810181811067ffffffffffffffff82111715610f6b57610f6a610f14565b5b80604052505050565b6000610f7e610eea565b9050610f8a8282610f43565b919050565b6000819050919050565b610fa281610f8f565b8114610fad57600080fd5b50565b600081359050610fbf81610f99565b92915050565b600060808284031215610fdb57610fda610efe565b5b610fe56080610f74565b90506000610ff584828501610fb0565b600083015250602061100984828501610fb0565b602083015250604061101d84828501610fb0565b604083015250606061103184828501610fb0565b60608301525092915050565b60006080828403121561105357611052610ef4565b5b600061106184828501610fc5565b91505092915050565b600073ffffffffffffffffffffffffffffffffffffffff82169050919050565b6000819050919050565b60006110af6110aa6110a58461106a565b61108a565b61106a565b9050919050565b60006110c182611094565b9050919050565b60006110d3826110b6565b9050919050565b6110e3816110c8565b82525050565b60006020820190506110fe60008301846110da565b92915050565b600061110f8261106a565b9050919050565b61111f81611104565b811461112a57600080fd5b50565b60008135905061113c81611116565b92915050565b60006020828403121561115857611157610ef4565b5b60006111668482850161112d565b91505092915050565b61117881610f8f565b82525050565b6000602082019050611193600083018461116f565b92915050565b60006080820190506111ae600083018761116f565b6111bb602083018661116f565b6111c8604083018561116f565b6111d5606083018461116f565b95945050505050565b6111e781611104565b82525050565b600060208201905061120260008301846111de565b92915050565b6000819050919050565b61121b81611208565b811461122657600080fd5b50565b60008135905061123881611212565b92915050565b600080fd5b600080fd5b600080fd5b60008083601f8401126112635761126261123e565b5b8235905067ffffffffffffffff8111156112805761127f611243565b5b60208301915083602082028301111561129c5761129b611248565b5b9250929050565b60008083601f8401126112b9576112b861123e565b5b8235905067ffffffffffffffff8111156112d6576112d5611243565b5b6020830191508360208202830111156112f2576112f1611248565b5b9250929050565b60008060008060006060868803121561131557611314610ef4565b5b600061132388828901611229565b955050602086013567ffffffffffffffff81111561134457611343610ef9565b5b6113508882890161124d565b9450945050604086013567ffffffffffffffff81111561137357611372610ef9565b5b61137f888289016112a3565b92509250509295509295909350565b6000602082840312156113a4576113a3610ef4565b5b60006113b284828501610fb0565b91505092915050565b600082825260208201905092915050565b7f4e6f7468696e6720746f20636c61696d00000000000000000000000000000000600082015250565b60006114026010836113bb565b915061140d826113cc565b602082019050919050565b60006020820190508181036000830152611431816113f5565b9050919050565b7f4e487b7100000000000000000000000000000000000000000000000000000000600052601160045260246000fd5b600061147282610f8f565b915061147d83610f8f565b925082820390508181111561149557611494611438565b5b92915050565b60006040820190506114b060008301856111de565b6114bd602083018461116f565b9392505050565b60008115159050919050565b6114d9816114c4565b81146114e457600080fd5b50565b6000815190506114f6816114d0565b92915050565b60006020828403121561151257611511610ef4565b5b6000611520848285016114e7565b91505092915050565b7f5472616e73666572206661696c65640000000000000000000000000000000000600082015250565b600061155f600f836113bb565b915061156a82611529565b602082019050919050565b6000602082019050818103600083015261158e81611552565b9050919050565b7f43616c6c6572206973206e6f7420746865207365727665720000000000000000600082015250565b60006115cb6018836113bb565b91506115d682611595565b602082019050919050565b600060208201905081810360008301526115fa816115be565b9050919050565b7f4d69736d61746368656420617272617973000000000000000000000000000000600082015250565b60006116376011836113bb565b915061164282611601565b602082019050919050565b600060208201905081810360008301526116668161162a565b9050919050565b7f4e487b7100000000000000000000000000000000000000000000000000000000600052603260045260246000fd5b7f4e487b7100000000000000000000000000000000000000000000000000000000600052601260045260246000fd5b60006116d682610f8f565b91506116e183610f8f565b9250826116f1576116f061169c565b5b828204905092915050565b600061170782610f8f565b915061171283610f8f565b925082820190508082111561172a57611729611438565b5b92915050565b600061173b82610f8f565b91507fffffffffffffffffffffffffffffffffffffffffffffffffffffffffffffffff820361176d5761176c611438565b5b600182019050919050565b60008151905061178781610f99565b92915050565b6000602082840312156117a3576117a2610ef4565b5b60006117b184828501611778565b91505092915050565b7f496e736f6c76656e743a204e6f7420656e6f7567682066756e64730000000000600082015250565b60006117f0601b836113bb565b91506117fb826117ba565b602082019050919050565b6000602082019050818103600083015261181f816117e3565b9050919050565b7f496e636f7272656374206275792d696e20616d6f756e74000000000000000000600082015250565b600061185c6017836113bb565b915061186782611826565b602082019050919050565b6000602082019050818103600083015261188b8161184f565b9050919050565b60006060820190506118a760008301866111de565b6118b460208301856111de565b6118c1604083018461116f565b949350505050565b60006118d482610f8f565b91506118df83610f8f565b92508282026118ed81610f8f565b9150828204841483151761190457611903611438565b5b5092915050565b7f52616b65207472616e73666572206661696c6564000000000000000000000000600082015250565b60006119416014836113bb565b915061194c8261190b565b602082019050919050565b6000602082019050818103600083015261197081611934565b9050919050565b600060608201905061198c600083018661116f565b611999602083018561116f565b6119a6604083018461116f565b94935050505056fea26469706673582212203bc68bf399dd8b30f7adbd18cd28f27a4498b690aafa8f6f57133c954a88148b64736f6c63430008140033",
  "linkReferences": {},
  "deployedLinkReferences": {}
}